{
  "_format": "hh-sol-artifact-1",
  "contractName": "CryptoDevs",
  "sourceName": "contracts/CryptoDevs.sol",
  "abi": [
    {
      "inputs": [
        {
          "internalType": "string",
          "name": "baseURI",
          "type": "string"
        },
        {
          "internalType": "address",
          "name": "whitelistContract",
          "type": "address"
        }
      ],
      "stateMutability": "nonpayable",
      "type": "constructor"
    },
    {
      "anonymous": false,
      "inputs": [
        {
          "indexed": true,
          "internalType": "address",
          "name": "owner",
          "type": "address"
        },
        {
          "indexed": true,
          "internalType": "address",
          "name": "approved",
          "type": "address"
        },
        {
          "indexed": true,
          "internalType": "uint256",
          "name": "tokenId",
          "type": "uint256"
        }
      ],
      "name": "Approval",
      "type": "event"
    },
    {
      "anonymous": false,
      "inputs": [
        {
          "indexed": true,
          "internalType": "address",
          "name": "owner",
          "type": "address"
        },
        {
          "indexed": true,
          "internalType": "address",
          "name": "operator",
          "type": "address"
        },
        {
          "indexed": false,
          "internalType": "bool",
          "name": "approved",
          "type": "bool"
        }
      ],
      "name": "ApprovalForAll",
      "type": "event"
    },
    {
      "anonymous": false,
      "inputs": [
        {
          "indexed": true,
          "internalType": "address",
          "name": "previousOwner",
          "type": "address"
        },
        {
          "indexed": true,
          "internalType": "address",
          "name": "newOwner",
          "type": "address"
        }
      ],
      "name": "OwnershipTransferred",
      "type": "event"
    },
    {
      "anonymous": false,
      "inputs": [
        {
          "indexed": true,
          "internalType": "address",
          "name": "from",
          "type": "address"
        },
        {
          "indexed": true,
          "internalType": "address",
          "name": "to",
          "type": "address"
        },
        {
          "indexed": true,
          "internalType": "uint256",
          "name": "tokenId",
          "type": "uint256"
        }
      ],
      "name": "Transfer",
      "type": "event"
    },
    {
      "stateMutability": "payable",
      "type": "fallback"
    },
    {
      "inputs": [],
      "name": "_paused",
      "outputs": [
        {
          "internalType": "bool",
          "name": "",
          "type": "bool"
        }
      ],
      "stateMutability": "view",
      "type": "function"
    },
    {
      "inputs": [],
      "name": "_price",
      "outputs": [
        {
          "internalType": "uint256",
          "name": "",
          "type": "uint256"
        }
      ],
      "stateMutability": "view",
      "type": "function"
    },
    {
      "inputs": [
        {
          "internalType": "address",
          "name": "to",
          "type": "address"
        },
        {
          "internalType": "uint256",
          "name": "tokenId",
          "type": "uint256"
        }
      ],
      "name": "approve",
      "outputs": [],
      "stateMutability": "nonpayable",
      "type": "function"
    },
    {
      "inputs": [
        {
          "internalType": "address",
          "name": "owner",
          "type": "address"
        }
      ],
      "name": "balanceOf",
      "outputs": [
        {
          "internalType": "uint256",
          "name": "",
          "type": "uint256"
        }
      ],
      "stateMutability": "view",
      "type": "function"
    },
    {
      "inputs": [
        {
          "internalType": "uint256",
          "name": "tokenId",
          "type": "uint256"
        }
      ],
      "name": "getApproved",
      "outputs": [
        {
          "internalType": "address",
          "name": "",
          "type": "address"
        }
      ],
      "stateMutability": "view",
      "type": "function"
    },
    {
      "inputs": [
        {
          "internalType": "address",
          "name": "owner",
          "type": "address"
        },
        {
          "internalType": "address",
          "name": "operator",
          "type": "address"
        }
      ],
      "name": "isApprovedForAll",
      "outputs": [
        {
          "internalType": "bool",
          "name": "",
          "type": "bool"
        }
      ],
      "stateMutability": "view",
      "type": "function"
    },
    {
      "inputs": [],
      "name": "maxTokenIds",
      "outputs": [
        {
          "internalType": "uint256",
          "name": "",
          "type": "uint256"
        }
      ],
      "stateMutability": "view",
      "type": "function"
    },
    {
      "inputs": [],
      "name": "mint",
      "outputs": [],
      "stateMutability": "payable",
      "type": "function"
    },
    {
      "inputs": [],
      "name": "name",
      "outputs": [
        {
          "internalType": "string",
          "name": "",
          "type": "string"
        }
      ],
      "stateMutability": "view",
      "type": "function"
    },
    {
      "inputs": [],
      "name": "owner",
      "outputs": [
        {
          "internalType": "address",
          "name": "",
          "type": "address"
        }
      ],
      "stateMutability": "view",
      "type": "function"
    },
    {
      "inputs": [
        {
          "internalType": "uint256",
          "name": "tokenId",
          "type": "uint256"
        }
      ],
      "name": "ownerOf",
      "outputs": [
        {
          "internalType": "address",
          "name": "",
          "type": "address"
        }
      ],
      "stateMutability": "view",
      "type": "function"
    },
    {
      "inputs": [],
      "name": "presaleEnded",
      "outputs": [
        {
          "internalType": "uint256",
          "name": "",
          "type": "uint256"
        }
      ],
      "stateMutability": "view",
      "type": "function"
    },
    {
      "inputs": [],
      "name": "presaleMint",
      "outputs": [],
      "stateMutability": "payable",
      "type": "function"
    },
    {
      "inputs": [],
      "name": "presaleStarted",
      "outputs": [
        {
          "internalType": "bool",
          "name": "",
          "type": "bool"
        }
      ],
      "stateMutability": "view",
      "type": "function"
    },
    {
      "inputs": [],
      "name": "renounceOwnership",
      "outputs": [],
      "stateMutability": "nonpayable",
      "type": "function"
    },
    {
      "inputs": [
        {
          "internalType": "address",
          "name": "from",
          "type": "address"
        },
        {
          "internalType": "address",
          "name": "to",
          "type": "address"
        },
        {
          "internalType": "uint256",
          "name": "tokenId",
          "type": "uint256"
        }
      ],
      "name": "safeTransferFrom",
      "outputs": [],
      "stateMutability": "nonpayable",
      "type": "function"
    },
    {
      "inputs": [
        {
          "internalType": "address",
          "name": "from",
          "type": "address"
        },
        {
          "internalType": "address",
          "name": "to",
          "type": "address"
        },
        {
          "internalType": "uint256",
          "name": "tokenId",
          "type": "uint256"
        },
        {
          "internalType": "bytes",
          "name": "data",
          "type": "bytes"
        }
      ],
      "name": "safeTransferFrom",
      "outputs": [],
      "stateMutability": "nonpayable",
      "type": "function"
    },
    {
      "inputs": [
        {
          "internalType": "address",
          "name": "operator",
          "type": "address"
        },
        {
          "internalType": "bool",
          "name": "approved",
          "type": "bool"
        }
      ],
      "name": "setApprovalForAll",
      "outputs": [],
      "stateMutability": "nonpayable",
      "type": "function"
    },
    {
      "inputs": [
        {
          "internalType": "bool",
          "name": "val",
          "type": "bool"
        }
      ],
      "name": "setPaused",
      "outputs": [],
      "stateMutability": "nonpayable",
      "type": "function"
    },
    {
      "inputs": [],
      "name": "startPresale",
      "outputs": [],
      "stateMutability": "nonpayable",
      "type": "function"
    },
    {
      "inputs": [
        {
          "internalType": "bytes4",
          "name": "interfaceId",
          "type": "bytes4"
        }
      ],
      "name": "supportsInterface",
      "outputs": [
        {
          "internalType": "bool",
          "name": "",
          "type": "bool"
        }
      ],
      "stateMutability": "view",
      "type": "function"
    },
    {
      "inputs": [],
      "name": "symbol",
      "outputs": [
        {
          "internalType": "string",
          "name": "",
          "type": "string"
        }
      ],
      "stateMutability": "view",
      "type": "function"
    },
    {
      "inputs": [
        {
          "internalType": "uint256",
          "name": "index",
          "type": "uint256"
        }
      ],
      "name": "tokenByIndex",
      "outputs": [
        {
          "internalType": "uint256",
          "name": "",
          "type": "uint256"
        }
      ],
      "stateMutability": "view",
      "type": "function"
    },
    {
      "inputs": [],
      "name": "tokenIds",
      "outputs": [
        {
          "internalType": "uint256",
          "name": "",
          "type": "uint256"
        }
      ],
      "stateMutability": "view",
      "type": "function"
    },
    {
      "inputs": [
        {
          "internalType": "address",
          "name": "owner",
          "type": "address"
        },
        {
          "internalType": "uint256",
          "name": "index",
          "type": "uint256"
        }
      ],
      "name": "tokenOfOwnerByIndex",
      "outputs": [
        {
          "internalType": "uint256",
          "name": "",
          "type": "uint256"
        }
      ],
      "stateMutability": "view",
      "type": "function"
    },
    {
      "inputs": [
        {
          "internalType": "uint256",
          "name": "tokenId",
          "type": "uint256"
        }
      ],
      "name": "tokenURI",
      "outputs": [
        {
          "internalType": "string",
          "name": "",
          "type": "string"
        }
      ],
      "stateMutability": "view",
      "type": "function"
    },
    {
      "inputs": [],
      "name": "totalSupply",
      "outputs": [
        {
          "internalType": "uint256",
          "name": "",
          "type": "uint256"
        }
      ],
      "stateMutability": "view",
      "type": "function"
    },
    {
      "inputs": [
        {
          "internalType": "address",
          "name": "from",
          "type": "address"
        },
        {
          "internalType": "address",
          "name": "to",
          "type": "address"
        },
        {
          "internalType": "uint256",
          "name": "tokenId",
          "type": "uint256"
        }
      ],
      "name": "transferFrom",
      "outputs": [],
      "stateMutability": "nonpayable",
      "type": "function"
    },
    {
      "inputs": [
        {
          "internalType": "address",
          "name": "newOwner",
          "type": "address"
        }
      ],
      "name": "transferOwnership",
      "outputs": [],
      "stateMutability": "nonpayable",
      "type": "function"
    },
    {
      "inputs": [],
      "name": "withdraw",
      "outputs": [],
      "stateMutability": "nonpayable",
      "type": "function"
    },
    {
      "stateMutability": "payable",
      "type": "receive"
    }
  ],
  "bytecode": "0x6080604052662386f26fc10000600c553480156200001c57600080fd5b506040516200459b3803806200459b83398181016040528101906200004291906200036b565b6040518060400160405280600a81526020017f43727970746f44657673000000000000000000000000000000000000000000008152506040518060400160405280600381526020017f44455600000000000000000000000000000000000000000000000000000000008152508160009080519060200190620000c692919062000232565b508060019080519060200190620000df92919062000232565b50505062000102620000f66200016460201b60201c565b6200016c60201b60201c565b81600b90805190602001906200011a92919062000232565b5080600f60006101000a81548173ffffffffffffffffffffffffffffffffffffffff021916908373ffffffffffffffffffffffffffffffffffffffff160217905550505062000583565b600033905090565b6000600a60009054906101000a900473ffffffffffffffffffffffffffffffffffffffff16905081600a60006101000a81548173ffffffffffffffffffffffffffffffffffffffff021916908373ffffffffffffffffffffffffffffffffffffffff1602179055508173ffffffffffffffffffffffffffffffffffffffff168173ffffffffffffffffffffffffffffffffffffffff167f8be0079c531659141344cd1fd0a4f28419497f9722a3daafe3b4186f6b6457e060405160405180910390a35050565b82805462000240906200048e565b90600052602060002090601f016020900481019282620002645760008555620002b0565b82601f106200027f57805160ff1916838001178555620002b0565b82800160010185558215620002b0579182015b82811115620002af57825182559160200191906001019062000292565b5b509050620002bf9190620002c3565b5090565b5b80821115620002de576000816000905550600101620002c4565b5090565b6000620002f9620002f384620003ee565b620003c5565b9050828152602081018484840111156200031257600080fd5b6200031f84828562000458565b509392505050565b600081519050620003388162000569565b92915050565b600082601f8301126200035057600080fd5b815162000362848260208601620002e2565b91505092915050565b600080604083850312156200037f57600080fd5b600083015167ffffffffffffffff8111156200039a57600080fd5b620003a8858286016200033e565b9250506020620003bb8582860162000327565b9150509250929050565b6000620003d1620003e4565b9050620003df8282620004c4565b919050565b6000604051905090565b600067ffffffffffffffff8211156200040c576200040b62000529565b5b620004178262000558565b9050602081019050919050565b6000620004318262000438565b9050919050565b600073ffffffffffffffffffffffffffffffffffffffff82169050919050565b60005b83811015620004785780820151818401526020810190506200045b565b8381111562000488576000848401525b50505050565b60006002820490506001821680620004a757607f821691505b60208210811415620004be57620004bd620004fa565b5b50919050565b620004cf8262000558565b810181811067ffffffffffffffff82111715620004f157620004f062000529565b5b80604052505050565b7f4e487b7100000000000000000000000000000000000000000000000000000000600052602260045260246000fd5b7f4e487b7100000000000000000000000000000000000000000000000000000000600052604160045260246000fd5b6000601f19601f8301169050919050565b620005748162000424565b81146200058057600080fd5b50565b61400880620005936000396000f3fe6080604052600436106101d15760003560e01c80634f6ccce7116100f75780638da5cb5b11610095578063c87b56dd11610064578063c87b56dd1461061a578063e580b2b014610657578063e985e9c514610682578063f2fde38b146106bf576101d8565b80638da5cb5b1461057257806395d89b411461059d578063a22cb465146105c8578063b88d4fde146105f1576101d8565b80636352211e116100d15780636352211e146104b657806370a08231146104f3578063714cff5614610530578063715018a61461055b576101d8565b80634f6ccce71461044457806359533d6c146104815780635f7696211461048b576101d8565b806316c38b3c1161016f57806323b872dd1161013e57806323b872dd1461039e5780632f745c59146103c75780633ccfd60b1461040457806342842e0e1461041b576101d8565b806316c38b3c146102f457806316c61ccc1461031d57806318160ddd14610348578063235b6ea114610373576101d8565b806306fdde03116101ab57806306fdde0314610259578063081812fc14610284578063095ea7b3146102c15780631249c58b146102ea576101d8565b806301ffc9a7146101da57806304549d6f1461021757806304c98b2b14610242576101d8565b366101d857005b005b3480156101e657600080fd5b5061020160048036038101906101fc9190612eac565b6106e8565b60405161020e91906133df565b60405180910390f35b34801561022357600080fd5b5061022c610762565b60405161023991906133df565b60405180910390f35b34801561024e57600080fd5b50610257610775565b005b34801561026557600080fd5b5061026e61079a565b60405161027b91906133fa565b60405180910390f35b34801561029057600080fd5b506102ab60048036038101906102a69190612efe565b61082c565b6040516102b89190613378565b60405180910390f35b3480156102cd57600080fd5b506102e860048036038101906102e39190612e1e565b610872565b005b6102f261098a565b005b34801561030057600080fd5b5061031b60048036038101906103169190612e5a565b610ae8565b005b34801561032957600080fd5b50610332610b0d565b60405161033f91906133df565b60405180910390f35b34801561035457600080fd5b5061035d610b20565b60405161036a91906136fc565b60405180910390f35b34801561037f57600080fd5b50610388610b2d565b60405161039591906136fc565b60405180910390f35b3480156103aa57600080fd5b506103c560048036038101906103c09190612d18565b610b33565b005b3480156103d357600080fd5b506103ee60048036038101906103e99190612e1e565b610b93565b6040516103fb91906136fc565b60405180910390f35b34801561041057600080fd5b50610419610c38565b005b34801561042757600080fd5b50610442600480360381019061043d9190612d18565b610d02565b005b34801561045057600080fd5b5061046b60048036038101906104669190612efe565b610d22565b60405161047891906136fc565b60405180910390f35b610489610db9565b005b34801561049757600080fd5b506104a0611001565b6040516104ad91906136fc565b60405180910390f35b3480156104c257600080fd5b506104dd60048036038101906104d89190612efe565b611006565b6040516104ea9190613378565b60405180910390f35b3480156104ff57600080fd5b5061051a60048036038101906105159190612cb3565b61108d565b60405161052791906136fc565b60405180910390f35b34801561053c57600080fd5b50610545611145565b60405161055291906136fc565b60405180910390f35b34801561056757600080fd5b5061057061114b565b005b34801561057e57600080fd5b5061058761115f565b6040516105949190613378565b60405180910390f35b3480156105a957600080fd5b506105b2611189565b6040516105bf91906133fa565b60405180910390f35b3480156105d457600080fd5b506105ef60048036038101906105ea9190612de2565b61121b565b005b3480156105fd57600080fd5b5061061860048036038101906106139190612d67565b611231565b005b34801561062657600080fd5b50610641600480360381019061063c9190612efe565b611293565b60405161064e91906133fa565b60405180910390f35b34801561066357600080fd5b5061066c6112fb565b60405161067991906136fc565b60405180910390f35b34801561068e57600080fd5b506106a960048036038101906106a49190612cdc565b611301565b6040516106b691906133df565b60405180910390f35b3480156106cb57600080fd5b506106e660048036038101906106e19190612cb3565b611395565b005b60007f780e9d63000000000000000000000000000000000000000000000000000000007bffffffffffffffffffffffffffffffffffffffffffffffffffffffff1916827bffffffffffffffffffffffffffffffffffffffffffffffffffffffff1916148061075b575061075a82611419565b5b9050919050565b600f60149054906101000a900460ff1681565b61077d6114fb565b6001600f60146101000a81548160ff021916908315150217905550565b6060600080546107a9906138fb565b80601f01602080910402602001604051908101604052809291908181526020018280546107d5906138fb565b80156108225780601f106107f757610100808354040283529160200191610822565b820191906000526020600020905b81548152906001019060200180831161080557829003601f168201915b5050505050905090565b600061083782611579565b6004600083815260200190815260200160002060009054906101000a900473ffffffffffffffffffffffffffffffffffffffff169050919050565b600061087d82611006565b90508073ffffffffffffffffffffffffffffffffffffffff168373ffffffffffffffffffffffffffffffffffffffff1614156108ee576040517f08c379a00000000000000000000000000000000000000000000000000000000081526004016108e5906135fc565b60405180910390fd5b8073ffffffffffffffffffffffffffffffffffffffff1661090d6115c4565b73ffffffffffffffffffffffffffffffffffffffff16148061093c575061093b816109366115c4565b611301565b5b61097b576040517f08c379a00000000000000000000000000000000000000000000000000000000081526004016109729061363c565b60405180910390fd5b61098583836115cc565b505050565b600d60009054906101000a900460ff16156109da576040517f08c379a00000000000000000000000000000000000000000000000000000000081526004016109d1906136bc565b60405180910390fd5b600f60149054906101000a900460ff1680156109f7575060105442115b610a36576040517f08c379a0000000000000000000000000000000000000000000000000000000008152600401610a2d906136dc565b60405180910390fd5b6014600e5410610a7b576040517f08c379a0000000000000000000000000000000000000000000000000000000008152600401610a72906134bc565b60405180910390fd5b600c54341015610ac0576040517f08c379a0000000000000000000000000000000000000000000000000000000008152600401610ab79061361c565b60405180910390fd5b6001600e6000828254610ad391906137bb565b92505081905550610ae633600e54611685565b565b610af06114fb565b80600d60006101000a81548160ff02191690831515021790555050565b600d60009054906101000a900460ff1681565b6000600880549050905090565b600c5481565b610b44610b3e6115c4565b826116a3565b610b83576040517f08c379a0000000000000000000000000000000000000000000000000000000008152600401610b7a9061341c565b60405180910390fd5b610b8e838383611738565b505050565b6000610b9e8361108d565b8210610bdf576040517f08c379a0000000000000000000000000000000000000000000000000000000008152600401610bd69061343c565b60405180910390fd5b600660008473ffffffffffffffffffffffffffffffffffffffff1673ffffffffffffffffffffffffffffffffffffffff168152602001908152602001600020600083815260200190815260200160002054905092915050565b610c406114fb565b6000610c4a61115f565b9050600047905060008273ffffffffffffffffffffffffffffffffffffffff1682604051610c7790613363565b60006040518083038185875af1925050503d8060008114610cb4576040519150601f19603f3d011682016040523d82523d6000602084013e610cb9565b606091505b5050905080610cfd576040517f08c379a0000000000000000000000000000000000000000000000000000000008152600401610cf49061365c565b60405180910390fd5b505050565b610d1d83838360405180602001604052806000815250611231565b505050565b6000610d2c610b20565b8210610d6d576040517f08c379a0000000000000000000000000000000000000000000000000000000008152600401610d649061367c565b60405180910390fd5b60088281548110610da7577f4e487b7100000000000000000000000000000000000000000000000000000000600052603260045260246000fd5b90600052602060002001549050919050565b600d60009054906101000a900460ff1615610e09576040517f08c379a0000000000000000000000000000000000000000000000000000000008152600401610e00906136bc565b60405180910390fd5b600f60149054906101000a900460ff168015610e26575060105442105b610e65576040517f08c379a0000000000000000000000000000000000000000000000000000000008152600401610e5c906134fc565b60405180910390fd5b600f60009054906101000a900473ffffffffffffffffffffffffffffffffffffffff1673ffffffffffffffffffffffffffffffffffffffff166306c933d8336040518263ffffffff1660e01b8152600401610ec09190613378565b60206040518083038186803b158015610ed857600080fd5b505afa158015610eec573d6000803e3d6000fd5b505050506040513d601f19601f82011682018060405250810190610f109190612e83565b610f4f576040517f08c379a0000000000000000000000000000000000000000000000000000000008152600401610f469061359c565b60405180910390fd5b6014600e5410610f94576040517f08c379a0000000000000000000000000000000000000000000000000000000008152600401610f8b906134bc565b60405180910390fd5b600c54341015610fd9576040517f08c379a0000000000000000000000000000000000000000000000000000000008152600401610fd09061361c565b60405180910390fd5b6001600e6000828254610fec91906137bb565b92505081905550610fff33600e54611685565b565b601481565b60008061101283611a32565b9050600073ffffffffffffffffffffffffffffffffffffffff168173ffffffffffffffffffffffffffffffffffffffff161415611084576040517f08c379a000000000000000000000000000000000000000000000000000000000815260040161107b906135dc565b60405180910390fd5b80915050919050565b60008073ffffffffffffffffffffffffffffffffffffffff168273ffffffffffffffffffffffffffffffffffffffff1614156110fe576040517f08c379a00000000000000000000000000000000000000000000000000000000081526004016110f59061355c565b60405180910390fd5b600360008373ffffffffffffffffffffffffffffffffffffffff1673ffffffffffffffffffffffffffffffffffffffff168152602001908152602001600020549050919050565b600e5481565b6111536114fb565b61115d6000611a6f565b565b6000600a60009054906101000a900473ffffffffffffffffffffffffffffffffffffffff16905090565b606060018054611198906138fb565b80601f01602080910402602001604051908101604052809291908181526020018280546111c4906138fb565b80156112115780601f106111e657610100808354040283529160200191611211565b820191906000526020600020905b8154815290600101906020018083116111f457829003601f168201915b5050505050905090565b61122d6112266115c4565b8383611b35565b5050565b61124261123c6115c4565b836116a3565b611281576040517f08c379a00000000000000000000000000000000000000000000000000000000081526004016112789061341c565b60405180910390fd5b61128d84848484611ca2565b50505050565b606061129e82611579565b60006112a8611cfe565b905060008151116112c857604051806020016040528060008152506112f3565b806112d284611d90565b6040516020016112e392919061333f565b6040516020818303038152906040525b915050919050565b60105481565b6000600560008473ffffffffffffffffffffffffffffffffffffffff1673ffffffffffffffffffffffffffffffffffffffff16815260200190815260200160002060008373ffffffffffffffffffffffffffffffffffffffff1673ffffffffffffffffffffffffffffffffffffffff16815260200190815260200160002060009054906101000a900460ff16905092915050565b61139d6114fb565b600073ffffffffffffffffffffffffffffffffffffffff168173ffffffffffffffffffffffffffffffffffffffff16141561140d576040517f08c379a00000000000000000000000000000000000000000000000000000000081526004016114049061347c565b60405180910390fd5b61141681611a6f565b50565b60007f80ac58cd000000000000000000000000000000000000000000000000000000007bffffffffffffffffffffffffffffffffffffffffffffffffffffffff1916827bffffffffffffffffffffffffffffffffffffffffffffffffffffffff191614806114e457507f5b5e139f000000000000000000000000000000000000000000000000000000007bffffffffffffffffffffffffffffffffffffffffffffffffffffffff1916827bffffffffffffffffffffffffffffffffffffffffffffffffffffffff1916145b806114f457506114f382611eb4565b5b9050919050565b6115036115c4565b73ffffffffffffffffffffffffffffffffffffffff1661152161115f565b73ffffffffffffffffffffffffffffffffffffffff1614611577576040517f08c379a000000000000000000000000000000000000000000000000000000000815260040161156e906135bc565b60405180910390fd5b565b61158281611f1e565b6115c1576040517f08c379a00000000000000000000000000000000000000000000000000000000081526004016115b8906135dc565b60405180910390fd5b50565b600033905090565b816004600083815260200190815260200160002060006101000a81548173ffffffffffffffffffffffffffffffffffffffff021916908373ffffffffffffffffffffffffffffffffffffffff160217905550808273ffffffffffffffffffffffffffffffffffffffff1661163f83611006565b73ffffffffffffffffffffffffffffffffffffffff167f8c5be1e5ebec7d5bd14f71427d1e84f3dd0314c0f7b2291e5b200ac8c7c3b92560405160405180910390a45050565b61169f828260405180602001604052806000815250611f5f565b5050565b6000806116af83611006565b90508073ffffffffffffffffffffffffffffffffffffffff168473ffffffffffffffffffffffffffffffffffffffff1614806116f157506116f08185611301565b5b8061172f57508373ffffffffffffffffffffffffffffffffffffffff166117178461082c565b73ffffffffffffffffffffffffffffffffffffffff16145b91505092915050565b8273ffffffffffffffffffffffffffffffffffffffff1661175882611006565b73ffffffffffffffffffffffffffffffffffffffff16146117ae576040517f08c379a00000000000000000000000000000000000000000000000000000000081526004016117a59061349c565b60405180910390fd5b600073ffffffffffffffffffffffffffffffffffffffff168273ffffffffffffffffffffffffffffffffffffffff16141561181e576040517f08c379a00000000000000000000000000000000000000000000000000000000081526004016118159061351c565b60405180910390fd5b61182b8383836001611fba565b8273ffffffffffffffffffffffffffffffffffffffff1661184b82611006565b73ffffffffffffffffffffffffffffffffffffffff16146118a1576040517f08c379a00000000000000000000000000000000000000000000000000000000081526004016118989061349c565b60405180910390fd5b6004600082815260200190815260200160002060006101000a81549073ffffffffffffffffffffffffffffffffffffffff02191690556001600360008573ffffffffffffffffffffffffffffffffffffffff1673ffffffffffffffffffffffffffffffffffffffff168152602001908152602001600020600082825403925050819055506001600360008473ffffffffffffffffffffffffffffffffffffffff1673ffffffffffffffffffffffffffffffffffffffff16815260200190815260200160002060008282540192505081905550816002600083815260200190815260200160002060006101000a81548173ffffffffffffffffffffffffffffffffffffffff021916908373ffffffffffffffffffffffffffffffffffffffff160217905550808273ffffffffffffffffffffffffffffffffffffffff168473ffffffffffffffffffffffffffffffffffffffff167fddf252ad1be2c89b69c2b068fc378daa952ba7f163c4a11628f55a4df523b3ef60405160405180910390a4611a2d838383600161211a565b505050565b60006002600083815260200190815260200160002060009054906101000a900473ffffffffffffffffffffffffffffffffffffffff169050919050565b6000600a60009054906101000a900473ffffffffffffffffffffffffffffffffffffffff16905081600a60006101000a81548173ffffffffffffffffffffffffffffffffffffffff021916908373ffffffffffffffffffffffffffffffffffffffff1602179055508173ffffffffffffffffffffffffffffffffffffffff168173ffffffffffffffffffffffffffffffffffffffff167f8be0079c531659141344cd1fd0a4f28419497f9722a3daafe3b4186f6b6457e060405160405180910390a35050565b8173ffffffffffffffffffffffffffffffffffffffff168373ffffffffffffffffffffffffffffffffffffffff161415611ba4576040517f08c379a0000000000000000000000000000000000000000000000000000000008152600401611b9b9061353c565b60405180910390fd5b80600560008573ffffffffffffffffffffffffffffffffffffffff1673ffffffffffffffffffffffffffffffffffffffff16815260200190815260200160002060008473ffffffffffffffffffffffffffffffffffffffff1673ffffffffffffffffffffffffffffffffffffffff16815260200190815260200160002060006101000a81548160ff0219169083151502179055508173ffffffffffffffffffffffffffffffffffffffff168373ffffffffffffffffffffffffffffffffffffffff167f17307eab39ab6107e8899845ad3d59bd9653f200f220920489ca2b5937696c3183604051611c9591906133df565b60405180910390a3505050565b611cad848484611738565b611cb984848484612120565b611cf8576040517f08c379a0000000000000000000000000000000000000000000000000000000008152600401611cef9061345c565b60405180910390fd5b50505050565b6060600b8054611d0d906138fb565b80601f0160208091040260200160405190810160405280929190818152602001828054611d39906138fb565b8015611d865780601f10611d5b57610100808354040283529160200191611d86565b820191906000526020600020905b815481529060010190602001808311611d6957829003601f168201915b5050505050905090565b606060006001611d9f846122b7565b01905060008167ffffffffffffffff811115611de4577f4e487b7100000000000000000000000000000000000000000000000000000000600052604160045260246000fd5b6040519080825280601f01601f191660200182016040528015611e165781602001600182028036833780820191505090505b509050600082602001820190505b600115611ea9578080600190039150507f3031323334353637383961626364656600000000000000000000000000000000600a86061a8153600a8581611e93577f4e487b7100000000000000000000000000000000000000000000000000000000600052601260045260246000fd5b0494506000851415611ea457611ea9565b611e24565b819350505050919050565b60007f01ffc9a7000000000000000000000000000000000000000000000000000000007bffffffffffffffffffffffffffffffffffffffffffffffffffffffff1916827bffffffffffffffffffffffffffffffffffffffffffffffffffffffff1916149050919050565b60008073ffffffffffffffffffffffffffffffffffffffff16611f4083611a32565b73ffffffffffffffffffffffffffffffffffffffff1614159050919050565b611f6983836124ee565b611f766000848484612120565b611fb5576040517f08c379a0000000000000000000000000000000000000000000000000000000008152600401611fac9061345c565b60405180910390fd5b505050565b611fc68484848461270c565b600181111561200a576040517f08c379a00000000000000000000000000000000000000000000000000000000081526004016120019061369c565b60405180910390fd5b6000829050600073ffffffffffffffffffffffffffffffffffffffff168573ffffffffffffffffffffffffffffffffffffffff1614156120525761204d81612832565b612091565b8373ffffffffffffffffffffffffffffffffffffffff168573ffffffffffffffffffffffffffffffffffffffff16146120905761208f858261287b565b5b5b600073ffffffffffffffffffffffffffffffffffffffff168473ffffffffffffffffffffffffffffffffffffffff1614156120d4576120cf816129e8565b612113565b8473ffffffffffffffffffffffffffffffffffffffff168473ffffffffffffffffffffffffffffffffffffffff1614612112576121118482612b2b565b5b5b5050505050565b50505050565b60006121418473ffffffffffffffffffffffffffffffffffffffff16612baa565b156122aa578373ffffffffffffffffffffffffffffffffffffffff1663150b7a0261216a6115c4565b8786866040518563ffffffff1660e01b815260040161218c9493929190613393565b602060405180830381600087803b1580156121a657600080fd5b505af19250505080156121d757506040513d601f19601f820116820180604052508101906121d49190612ed5565b60015b61225a573d8060008114612207576040519150601f19603f3d011682016040523d82523d6000602084013e61220c565b606091505b50600081511415612252576040517f08c379a00000000000000000000000000000000000000000000000000000000081526004016122499061345c565b60405180910390fd5b805181602001fd5b63150b7a0260e01b7bffffffffffffffffffffffffffffffffffffffffffffffffffffffff1916817bffffffffffffffffffffffffffffffffffffffffffffffffffffffff1916149150506122af565b600190505b949350505050565b600080600090507a184f03e93ff9f4daa797ed6e38ed64bf6a1f010000000000000000831061233b577a184f03e93ff9f4daa797ed6e38ed64bf6a1f0100000000000000008381612331577f4e487b7100000000000000000000000000000000000000000000000000000000600052601260045260246000fd5b0492506040810190505b6d04ee2d6d415b85acef8100000000831061239e576d04ee2d6d415b85acef81000000008381612394577f4e487b7100000000000000000000000000000000000000000000000000000000600052601260045260246000fd5b0492506020810190505b662386f26fc1000083106123f357662386f26fc1000083816123e9577f4e487b7100000000000000000000000000000000000000000000000000000000600052601260045260246000fd5b0492506010810190505b6305f5e1008310612442576305f5e1008381612438577f4e487b7100000000000000000000000000000000000000000000000000000000600052601260045260246000fd5b0492506008810190505b612710831061248d576127108381612483577f4e487b7100000000000000000000000000000000000000000000000000000000600052601260045260246000fd5b0492506004810190505b606483106124d657606483816124cc577f4e487b7100000000000000000000000000000000000000000000000000000000600052601260045260246000fd5b0492506002810190505b600a83106124e5576001810190505b80915050919050565b600073ffffffffffffffffffffffffffffffffffffffff168273ffffffffffffffffffffffffffffffffffffffff16141561255e576040517f08c379a00000000000000000000000000000000000000000000000000000000081526004016125559061357c565b60405180910390fd5b61256781611f1e565b156125a7576040517f08c379a000000000000000000000000000000000000000000000000000000000815260040161259e906134dc565b60405180910390fd5b6125b5600083836001611fba565b6125be81611f1e565b156125fe576040517f08c379a00000000000000000000000000000000000000000000000000000000081526004016125f5906134dc565b60405180910390fd5b6001600360008473ffffffffffffffffffffffffffffffffffffffff1673ffffffffffffffffffffffffffffffffffffffff16815260200190815260200160002060008282540192505081905550816002600083815260200190815260200160002060006101000a81548173ffffffffffffffffffffffffffffffffffffffff021916908373ffffffffffffffffffffffffffffffffffffffff160217905550808273ffffffffffffffffffffffffffffffffffffffff16600073ffffffffffffffffffffffffffffffffffffffff167fddf252ad1be2c89b69c2b068fc378daa952ba7f163c4a11628f55a4df523b3ef60405160405180910390a461270860008383600161211a565b5050565b600181111561282c57600073ffffffffffffffffffffffffffffffffffffffff168473ffffffffffffffffffffffffffffffffffffffff16146127a05780600360008673ffffffffffffffffffffffffffffffffffffffff1673ffffffffffffffffffffffffffffffffffffffff16815260200190815260200160002060008282546127989190613811565b925050819055505b600073ffffffffffffffffffffffffffffffffffffffff168373ffffffffffffffffffffffffffffffffffffffff161461282b5780600360008573ffffffffffffffffffffffffffffffffffffffff1673ffffffffffffffffffffffffffffffffffffffff168152602001908152602001600020600082825461282391906137bb565b925050819055505b5b50505050565b6008805490506009600083815260200190815260200160002081905550600881908060018154018082558091505060019003906000526020600020016000909190919091505550565b600060016128888461108d565b6128929190613811565b9050600060076000848152602001908152602001600020549050818114612977576000600660008673ffffffffffffffffffffffffffffffffffffffff1673ffffffffffffffffffffffffffffffffffffffff168152602001908152602001600020600084815260200190815260200160002054905080600660008773ffffffffffffffffffffffffffffffffffffffff1673ffffffffffffffffffffffffffffffffffffffff168152602001908152602001600020600084815260200190815260200160002081905550816007600083815260200190815260200160002081905550505b6007600084815260200190815260200160002060009055600660008573ffffffffffffffffffffffffffffffffffffffff1673ffffffffffffffffffffffffffffffffffffffff16815260200190815260200160002060008381526020019081526020016000206000905550505050565b600060016008805490506129fc9190613811565b9050600060096000848152602001908152602001600020549050600060088381548110612a52577f4e487b7100000000000000000000000000000000000000000000000000000000600052603260045260246000fd5b906000526020600020015490508060088381548110612a9a577f4e487b7100000000000000000000000000000000000000000000000000000000600052603260045260246000fd5b906000526020600020018190555081600960008381526020019081526020016000208190555060096000858152602001908152602001600020600090556008805480612b0f577f4e487b7100000000000000000000000000000000000000000000000000000000600052603160045260246000fd5b6001900381819060005260206000200160009055905550505050565b6000612b368361108d565b905081600660008573ffffffffffffffffffffffffffffffffffffffff1673ffffffffffffffffffffffffffffffffffffffff168152602001908152602001600020600083815260200190815260200160002081905550806007600084815260200190815260200160002081905550505050565b6000808273ffffffffffffffffffffffffffffffffffffffff163b119050919050565b6000612be0612bdb8461373c565b613717565b905082815260208101848484011115612bf857600080fd5b612c038482856138b9565b509392505050565b600081359050612c1a81613f76565b92915050565b600081359050612c2f81613f8d565b92915050565b600081519050612c4481613f8d565b92915050565b600081359050612c5981613fa4565b92915050565b600081519050612c6e81613fa4565b92915050565b600082601f830112612c8557600080fd5b8135612c95848260208601612bcd565b91505092915050565b600081359050612cad81613fbb565b92915050565b600060208284031215612cc557600080fd5b6000612cd384828501612c0b565b91505092915050565b60008060408385031215612cef57600080fd5b6000612cfd85828601612c0b565b9250506020612d0e85828601612c0b565b9150509250929050565b600080600060608486031215612d2d57600080fd5b6000612d3b86828701612c0b565b9350506020612d4c86828701612c0b565b9250506040612d5d86828701612c9e565b9150509250925092565b60008060008060808587031215612d7d57600080fd5b6000612d8b87828801612c0b565b9450506020612d9c87828801612c0b565b9350506040612dad87828801612c9e565b925050606085013567ffffffffffffffff811115612dca57600080fd5b612dd687828801612c74565b91505092959194509250565b60008060408385031215612df557600080fd5b6000612e0385828601612c0b565b9250506020612e1485828601612c20565b9150509250929050565b60008060408385031215612e3157600080fd5b6000612e3f85828601612c0b565b9250506020612e5085828601612c9e565b9150509250929050565b600060208284031215612e6c57600080fd5b6000612e7a84828501612c20565b91505092915050565b600060208284031215612e9557600080fd5b6000612ea384828501612c35565b91505092915050565b600060208284031215612ebe57600080fd5b6000612ecc84828501612c4a565b91505092915050565b600060208284031215612ee757600080fd5b6000612ef584828501612c5f565b91505092915050565b600060208284031215612f1057600080fd5b6000612f1e84828501612c9e565b91505092915050565b612f3081613845565b82525050565b612f3f81613857565b82525050565b6000612f508261376d565b612f5a8185613783565b9350612f6a8185602086016138c8565b612f73816139eb565b840191505092915050565b6000612f8982613778565b612f93818561379f565b9350612fa38185602086016138c8565b612fac816139eb565b840191505092915050565b6000612fc282613778565b612fcc81856137b0565b9350612fdc8185602086016138c8565b80840191505092915050565b6000612ff5602d8361379f565b9150613000826139fc565b604082019050919050565b6000613018602b8361379f565b915061302382613a4b565b604082019050919050565b600061303b60328361379f565b915061304682613a9a565b604082019050919050565b600061305e60268361379f565b915061306982613ae9565b604082019050919050565b600061308160258361379f565b915061308c82613b38565b604082019050919050565b60006130a460238361379f565b91506130af82613b87565b604082019050919050565b60006130c7601c8361379f565b91506130d282613bd6565b602082019050919050565b60006130ea60168361379f565b91506130f582613bff565b602082019050919050565b600061310d60248361379f565b915061311882613c28565b604082019050919050565b600061313060198361379f565b915061313b82613c77565b602082019050919050565b600061315360298361379f565b915061315e82613ca0565b604082019050919050565b600061317660208361379f565b915061318182613cef565b602082019050919050565b600061319960178361379f565b91506131a482613d18565b602082019050919050565b60006131bc60208361379f565b91506131c782613d41565b602082019050919050565b60006131df60188361379f565b91506131ea82613d6a565b602082019050919050565b600061320260218361379f565b915061320d82613d93565b604082019050919050565b600061322560198361379f565b915061323082613de2565b602082019050919050565b6000613248600083613794565b915061325382613e0b565b600082019050919050565b600061326b603d8361379f565b915061327682613e0e565b604082019050919050565b600061328e60108361379f565b915061329982613e5d565b602082019050919050565b60006132b1602c8361379f565b91506132bc82613e86565b604082019050919050565b60006132d460358361379f565b91506132df82613ed5565b604082019050919050565b60006132f760128361379f565b915061330282613f24565b602082019050919050565b600061331a60128361379f565b915061332582613f4d565b602082019050919050565b613339816138af565b82525050565b600061334b8285612fb7565b91506133578284612fb7565b91508190509392505050565b600061336e8261323b565b9150819050919050565b600060208201905061338d6000830184612f27565b92915050565b60006080820190506133a86000830187612f27565b6133b56020830186612f27565b6133c26040830185613330565b81810360608301526133d48184612f45565b905095945050505050565b60006020820190506133f46000830184612f36565b92915050565b600060208201905081810360008301526134148184612f7e565b905092915050565b6000602082019050818103600083015261343581612fe8565b9050919050565b600060208201905081810360008301526134558161300b565b9050919050565b600060208201905081810360008301526134758161302e565b9050919050565b6000602082019050818103600083015261349581613051565b9050919050565b600060208201905081810360008301526134b581613074565b9050919050565b600060208201905081810360008301526134d581613097565b9050919050565b600060208201905081810360008301526134f5816130ba565b9050919050565b60006020820190508181036000830152613515816130dd565b9050919050565b6000602082019050818103600083015261353581613100565b9050919050565b6000602082019050818103600083015261355581613123565b9050919050565b6000602082019050818103600083015261357581613146565b9050919050565b6000602082019050818103600083015261359581613169565b9050919050565b600060208201905081810360008301526135b58161318c565b9050919050565b600060208201905081810360008301526135d5816131af565b9050919050565b600060208201905081810360008301526135f5816131d2565b9050919050565b60006020820190508181036000830152613615816131f5565b9050919050565b6000602082019050818103600083015261363581613218565b9050919050565b600060208201905081810360008301526136558161325e565b9050919050565b6000602082019050818103600083015261367581613281565b9050919050565b60006020820190508181036000830152613695816132a4565b9050919050565b600060208201905081810360008301526136b5816132c7565b9050919050565b600060208201905081810360008301526136d5816132ea565b9050919050565b600060208201905081810360008301526136f58161330d565b9050919050565b60006020820190506137116000830184613330565b92915050565b6000613721613732565b905061372d828261392d565b919050565b6000604051905090565b600067ffffffffffffffff821115613757576137566139bc565b5b613760826139eb565b9050602081019050919050565b600081519050919050565b600081519050919050565b600082825260208201905092915050565b600081905092915050565b600082825260208201905092915050565b600081905092915050565b60006137c6826138af565b91506137d1836138af565b9250827fffffffffffffffffffffffffffffffffffffffffffffffffffffffffffffffff038211156138065761380561395e565b5b828201905092915050565b600061381c826138af565b9150613827836138af565b92508282101561383a5761383961395e565b5b828203905092915050565b60006138508261388f565b9050919050565b60008115159050919050565b60007fffffffff0000000000000000000000000000000000000000000000000000000082169050919050565b600073ffffffffffffffffffffffffffffffffffffffff82169050919050565b6000819050919050565b82818337600083830152505050565b60005b838110156138e65780820151818401526020810190506138cb565b838111156138f5576000848401525b50505050565b6000600282049050600182168061391357607f821691505b602082108114156139275761392661398d565b5b50919050565b613936826139eb565b810181811067ffffffffffffffff82111715613955576139546139bc565b5b80604052505050565b7f4e487b7100000000000000000000000000000000000000000000000000000000600052601160045260246000fd5b7f4e487b7100000000000000000000000000000000000000000000000000000000600052602260045260246000fd5b7f4e487b7100000000000000000000000000000000000000000000000000000000600052604160045260246000fd5b6000601f19601f8301169050919050565b7f4552433732313a2063616c6c6572206973206e6f7420746f6b656e206f776e6560008201527f72206f7220617070726f76656400000000000000000000000000000000000000602082015250565b7f455243373231456e756d657261626c653a206f776e657220696e646578206f7560008201527f74206f6620626f756e6473000000000000000000000000000000000000000000602082015250565b7f4552433732313a207472616e7366657220746f206e6f6e20455243373231526560008201527f63656976657220696d706c656d656e7465720000000000000000000000000000602082015250565b7f4f776e61626c653a206e6577206f776e657220697320746865207a65726f206160008201527f6464726573730000000000000000000000000000000000000000000000000000602082015250565b7f4552433732313a207472616e736665722066726f6d20696e636f72726563742060008201527f6f776e6572000000000000000000000000000000000000000000000000000000602082015250565b7f4578636565646564206d6178696d756d2043727970746f20446576732073757060008201527f706c790000000000000000000000000000000000000000000000000000000000602082015250565b7f4552433732313a20746f6b656e20616c7265616479206d696e74656400000000600082015250565b7f50726573616c65206973206e6f742072756e6e696e6700000000000000000000600082015250565b7f4552433732313a207472616e7366657220746f20746865207a65726f2061646460008201527f7265737300000000000000000000000000000000000000000000000000000000602082015250565b7f4552433732313a20617070726f766520746f2063616c6c657200000000000000600082015250565b7f4552433732313a2061646472657373207a65726f206973206e6f74206120766160008201527f6c6964206f776e65720000000000000000000000000000000000000000000000602082015250565b7f4552433732313a206d696e7420746f20746865207a65726f2061646472657373600082015250565b7f596f7520617265206e6f742077686974656c6973746564000000000000000000600082015250565b7f4f776e61626c653a2063616c6c6572206973206e6f7420746865206f776e6572600082015250565b7f4552433732313a20696e76616c696420746f6b656e2049440000000000000000600082015250565b7f4552433732313a20617070726f76616c20746f2063757272656e74206f776e6560008201527f7200000000000000000000000000000000000000000000000000000000000000602082015250565b7f45746865722073656e74206973206e6f7420636f727265637400000000000000600082015250565b50565b7f4552433732313a20617070726f76652063616c6c6572206973206e6f7420746f60008201527f6b656e206f776e6572206f7220617070726f76656420666f7220616c6c000000602082015250565b7f5472616e73666572206661696c65642e00000000000000000000000000000000600082015250565b7f455243373231456e756d657261626c653a20676c6f62616c20696e646578206f60008201527f7574206f6620626f756e64730000000000000000000000000000000000000000602082015250565b7f455243373231456e756d657261626c653a20636f6e736563757469766520747260008201527f616e7366657273206e6f7420737570706f727465640000000000000000000000602082015250565b7f436f6e7472616374206973207061757365640000000000000000000000000000600082015250565b7f50726573616c652069732072756e6e696e670000000000000000000000000000600082015250565b613f7f81613845565b8114613f8a57600080fd5b50565b613f9681613857565b8114613fa157600080fd5b50565b613fad81613863565b8114613fb857600080fd5b50565b613fc4816138af565b8114613fcf57600080fd5b5056fea2646970667358221220b425d9532dda4f52ae385c763bab0554155848e6f3838a26e195f1da02c9cc2a64736f6c63430008040033",
  "linkReferences": {},
  "deployedLinkReferences": {}
}